--- Loading Wallet: segwit_lab ---
Generating Addresses ---
A': 2N9HpcqaUiDmn6UkZe5rCo99QBjVPEYQGra
B':
2MuuAqcamePkYXH5B3qys1mUXhf77mFHQAs
C': 2NAjU8g1mXRe1K6NNbyaR6VAQrG9j4GKLhy

--- MInIng BLOCKS ---
--- Funding A' ---
Funding TXID: 6b43b36f429d149552614c0a017cffb7217c8eb0003e9618250314f32efe48c8

--- Transaction A' -> B' ---
Raw Transaction:
0200000001c848fe2ef314032518963e00b08e7c21b7ff7c010a4c615295149d426fb3436b0100000000fdffffff01603bea0b0000000017a9141d1d6dd730b7f1c9d08aaac9ef7a1b50bb66f2438700000000
Decoded Transaction:
"txid": "0e8d44f0b0b17d33d474e3f2c6687c7bf8a29ed3290c09a4e7091370c770c5c7",
"hash": "0e8d44f0b0b17d33d474e3f2c6687c7bf8a29ed3290c09a4e7091370c770c5c7",
"version": 2,
"size": 83,
"vsize": 83,
"weight": 332,
"locktime": 0,
"vin": [
"txid": "6b43b36f429d149552614c0a017cffb7217c8eb0003e9618250314f32efe48c8",
"vout": 1,
"scriptSio": {
"asm':
"hex'"''
}, "sequence": 4294967293
'vout": [
"value": "1.99900000",
"n: ü.
"scriptPubKey": {
"asm": "OP_HASH160 1d1d6dd730b7f1c9d08aaac9ef7a1b50bb66f243 OP_EQUAL",
"desc": "addr(2MuuAqcamePkYXH5B3ays1mUXhf77mFHQAs)#npw68mla",
"hex": "a9141d1d6dd730b7f1c9d08aaac9ef7a1b50bb66f24387",
"address": "2MuuAqcamePkYXH5B3qys1mUXhf77mFHQAs",
"type": "scripthash"
Broadcasted TXID: 42c758a4beceb81d9aed8de24a6425fb85947174fdc9eb703a4f456ec893fa51

--- Extracting scriptPubkey for B' ---
scriptPubKey ASM: OP_HASH160 1d1d6dd730b7f1c9d08aaac9ef7a1b50bb66f243 OP_EQUAL
scriptPubkey HEX: a9141d1d6dd730b7f1c9d08aaac9ef7a1b50bb66f24387

--- Transaction B' -> C' ---
Signed Transaction HEX (for btcdeb):
0200000000010151fa93c86e454f3a70ebc9fd74719485fb25644ae28ded9a1db8cebea458c7420000000017160014a5783c96a6fa22224a3da1c1a38d508bc2717f25fdffffff01c0b4e80b0000000017a914bfd197b55659119aa18fc080d7f5170eb631b7d18702473044022000ce599f3fcd19fd4e
da68f03b209c953bfe5949f5daaefbc4c071777957e3bf022067d6317543e8a6c87f6e5c01355cbd22a29984859267e60d9b55941b449850bd0121022f4dc2ae60329dc6f646a3a380fd842ac0a165f65d89805796cd0d2bc21c186200000000
Broadcasted TXID: 20786a352126c237549760002ae8219a3a50c800581657bf8622c2639d8278f8


--- Script Analysis ---


Size: 215
vSize: 134
Weight: 533 scriptSig:
0014a5783c96a6fa22224a3da1c1a38d508bc2717f25
Witness:
3044022000ce599f3fcd19fd4eda68f03b209c953bfe5949f5daaefbc4c071777957e3bf022067d6317543e8a6c87f6e5c0135
022f4dc2ae60329dc6f646a3a380fd842ac0a165f65d89805796cd0d2bc21c1862
d22a29984859267e60d9b55941b449850bd01
scriptPubKey
ASM:
OP_HASH160 bfd197b55659119aa18fc080d7f5170eb631b7d1 OP_EQUAL
scriptPubkey HEX:
a914bfd197b55659119aa18fc080d7f5170eb631b7d187
-- Workflow Summary
Tx A'
-> B'
:42c758a4beceb81d9aed8de24a6425fb85947174fdc9eb703a4f456ec893fa51
Tx B' -> C'
:20786a352126c237549760002ae8219a3a50c800581657bf8622c2639d8278f8